{
  "_format": "hh-sol-artifact-1",
  "contractName": "WavePortal",
  "sourceName": "contracts/WavePortal.sol",
  "abi": [
    {
      "inputs": [],
      "stateMutability": "payable",
      "type": "constructor"
    },
    {
      "anonymous": false,
      "inputs": [
        {
          "indexed": false,
          "internalType": "address",
          "name": "from",
          "type": "address"
        },
        {
          "indexed": false,
          "internalType": "string",
          "name": "message",
          "type": "string"
        },
        {
          "indexed": false,
          "internalType": "uint256",
          "name": "time",
          "type": "uint256"
        }
      ],
      "name": "NewWave",
      "type": "event"
    },
    {
      "inputs": [],
      "name": "getAllWaves",
      "outputs": [
        {
          "components": [
            {
              "internalType": "string",
              "name": "message",
              "type": "string"
            },
            {
              "internalType": "address",
              "name": "sender",
              "type": "address"
            },
            {
              "internalType": "uint256",
              "name": "timestamp",
              "type": "uint256"
            }
          ],
          "internalType": "struct WavePortal.waves[]",
          "name": "",
          "type": "tuple[]"
        }
      ],
      "stateMutability": "view",
      "type": "function"
    },
    {
      "inputs": [],
      "name": "getTotalWaves",
      "outputs": [
        {
          "internalType": "uint256",
          "name": "",
          "type": "uint256"
        }
      ],
      "stateMutability": "view",
      "type": "function"
    },
    {
      "inputs": [
        {
          "internalType": "string",
          "name": "_message",
          "type": "string"
        }
      ],
      "name": "wave",
      "outputs": [],
      "stateMutability": "nonpayable",
      "type": "function"
    }
  ],
  "bytecode": "0x60806040526200004f6040518060400160405280601a81526020017f486579205468697320697320536d61727420636f6e74726163740000000000008152506200007760201b620005441760201c565b606444426200005f91906200017c565b6200006b9190620001e6565b600181905550620002dc565b62000117816040516024016200008e9190620002b8565b6040516020818303038152906040527f41304fac000000000000000000000000000000000000000000000000000000007bffffffffffffffffffffffffffffffffffffffffffffffffffffffff19166020820180517bffffffffffffffffffffffffffffffffffffffffffffffffffffffff83818316178352505050506200011a60201b60201c565b50565b60008151905060006a636f6e736f6c652e6c6f679050602083016000808483855afa5050505050565b6000819050919050565b7f4e487b7100000000000000000000000000000000000000000000000000000000600052601160045260246000fd5b6000620001898262000143565b9150620001968362000143565b9250828201905080821115620001b157620001b06200014d565b5b92915050565b7f4e487b7100000000000000000000000000000000000000000000000000000000600052601260045260246000fd5b6000620001f38262000143565b9150620002008362000143565b925082620002135762000212620001b7565b5b828206905092915050565b600081519050919050565b600082825260208201905092915050565b60005b838110156200025a5780820151818401526020810190506200023d565b60008484015250505050565b6000601f19601f8301169050919050565b600062000284826200021e565b62000290818562000229565b9350620002a28185602086016200023a565b620002ad8162000266565b840191505092915050565b60006020820190508181036000830152620002d4818462000277565b905092915050565b61112680620002ec6000396000f3fe608060405234801561001057600080fd5b50600436106100415760003560e01c8063449d46c0146100465780639a2cdc0814610062578063bd43a90814610080575b600080fd5b610060600480360381019061005b9190610898565b61009e565b005b61006a6103a8565b60405161007791906108fa565b60405180910390f35b6100886103f3565b6040516100959190610af6565b60405180910390f35b60016000546100ad9190610b47565b600081905550600260405180606001604052808381526020013373ffffffffffffffffffffffffffffffffffffffff16815260200142815250908060018154018082558091505060019003906000526020600020906003020160009091909190915060008201518160000190816101249190610d87565b5060208201518160010160006101000a81548173ffffffffffffffffffffffffffffffffffffffff021916908373ffffffffffffffffffffffffffffffffffffffff1602179055506040820151816002015550507f6728ef66814a55b797863bf8ffcd954b19cbca4ed4f0e6cf04c980705fd82c363382426040516101ab93929190610eb2565b60405180910390a1606460015442446101c49190610b47565b6101ce9190610b47565b6101d89190610f1f565b60018190555061021f6040518060400160405280601681526020017f52616e646f6d20232067656e6572617465643a202564000000000000000000008152506001546105dd565b6032600154101561026a576102696040518060400160405280600781526020017f257320776f6e210000000000000000000000000000000000000000000000000081525033610679565b5b6000662386f26fc1000090508047116102b8576040517f08c379a00000000000000000000000000000000000000000000000000000000081526004016102af90610f9c565b60405180910390fd5b60003373ffffffffffffffffffffffffffffffffffffffff16826040516102de90610fed565b60006040518083038185875af1925050503d806000811461031b576040519150601f19603f3d011682016040523d82523d6000602084013e610320565b606091505b5050905080610364576040517f08c379a000000000000000000000000000000000000000000000000000000000815260040161035b9061104e565b60405180910390fd5b6103a36040518060400160405280600f81526020017f257320697320746865207761766572000000000000000000000000000000000081525033610679565b505050565b60006103eb6040518060400160405280601c81526020017f4c69746572616c6c7920776520686176652025642077617665732120000000008152506000546105dd565b600054905090565b60606002805480602002602001604051908101604052809291908181526020016000905b8282101561053b578382906000526020600020906003020160405180606001604052908160008201805461044a90610baa565b80601f016020809104026020016040519081016040528092919081815260200182805461047690610baa565b80156104c35780601f10610498576101008083540402835291602001916104c3565b820191906000526020600020905b8154815290600101906020018083116104a657829003601f168201915b505050505081526020016001820160009054906101000a900473ffffffffffffffffffffffffffffffffffffffff1673ffffffffffffffffffffffffffffffffffffffff1673ffffffffffffffffffffffffffffffffffffffff16815260200160028201548152505081526020019060010190610417565b50505050905090565b6105da81604051602401610558919061106e565b6040516020818303038152906040527f41304fac000000000000000000000000000000000000000000000000000000007bffffffffffffffffffffffffffffffffffffffffffffffffffffffff19166020820180517bffffffffffffffffffffffffffffffffffffffffffffffffffffffff8381831617835250505050610715565b50565b61067582826040516024016105f3929190611090565b6040516020818303038152906040527fb60e72cc000000000000000000000000000000000000000000000000000000007bffffffffffffffffffffffffffffffffffffffffffffffffffffffff19166020820180517bffffffffffffffffffffffffffffffffffffffffffffffffffffffff8381831617835250505050610715565b5050565b610711828260405160240161068f9291906110c0565b6040516020818303038152906040527f319af333000000000000000000000000000000000000000000000000000000007bffffffffffffffffffffffffffffffffffffffffffffffffffffffff19166020820180517bffffffffffffffffffffffffffffffffffffffffffffffffffffffff8381831617835250505050610715565b5050565b60008151905060006a636f6e736f6c652e6c6f679050602083016000808483855afa5050505050565b6000604051905090565b600080fd5b600080fd5b600080fd5b600080fd5b6000601f19601f8301169050919050565b7f4e487b7100000000000000000000000000000000000000000000000000000000600052604160045260246000fd5b6107a58261075c565b810181811067ffffffffffffffff821117156107c4576107c361076d565b5b80604052505050565b60006107d761073e565b90506107e3828261079c565b919050565b600067ffffffffffffffff8211156108035761080261076d565b5b61080c8261075c565b9050602081019050919050565b82818337600083830152505050565b600061083b610836846107e8565b6107cd565b90508281526020810184848401111561085757610856610757565b5b610862848285610819565b509392505050565b600082601f83011261087f5761087e610752565b5b813561088f848260208601610828565b91505092915050565b6000602082840312156108ae576108ad610748565b5b600082013567ffffffffffffffff8111156108cc576108cb61074d565b5b6108d88482850161086a565b91505092915050565b6000819050919050565b6108f4816108e1565b82525050565b600060208201905061090f60008301846108eb565b92915050565b600081519050919050565b600082825260208201905092915050565b6000819050602082019050919050565b600081519050919050565b600082825260208201905092915050565b60005b8381101561097b578082015181840152602081019050610960565b60008484015250505050565b600061099282610941565b61099c818561094c565b93506109ac81856020860161095d565b6109b58161075c565b840191505092915050565b600073ffffffffffffffffffffffffffffffffffffffff82169050919050565b60006109eb826109c0565b9050919050565b6109fb816109e0565b82525050565b610a0a816108e1565b82525050565b60006060830160008301518482036000860152610a2d8282610987565b9150506020830151610a4260208601826109f2565b506040830151610a556040860182610a01565b508091505092915050565b6000610a6c8383610a10565b905092915050565b6000602082019050919050565b6000610a8c82610915565b610a968185610920565b935083602082028501610aa885610931565b8060005b85811015610ae45784840389528151610ac58582610a60565b9450610ad083610a74565b925060208a01995050600181019050610aac565b50829750879550505050505092915050565b60006020820190508181036000830152610b108184610a81565b905092915050565b7f4e487b7100000000000000000000000000000000000000000000000000000000600052601160045260246000fd5b6000610b52826108e1565b9150610b5d836108e1565b9250828201905080821115610b7557610b74610b18565b5b92915050565b7f4e487b7100000000000000000000000000000000000000000000000000000000600052602260045260246000fd5b60006002820490506001821680610bc257607f821691505b602082108103610bd557610bd4610b7b565b5b50919050565b60008190508160005260206000209050919050565b60006020601f8301049050919050565b600082821b905092915050565b600060088302610c3d7fffffffffffffffffffffffffffffffffffffffffffffffffffffffffffffffff82610c00565b610c478683610c00565b95508019841693508086168417925050509392505050565b6000819050919050565b6000610c84610c7f610c7a846108e1565b610c5f565b6108e1565b9050919050565b6000819050919050565b610c9e83610c69565b610cb2610caa82610c8b565b848454610c0d565b825550505050565b600090565b610cc7610cba565b610cd2818484610c95565b505050565b5b81811015610cf657610ceb600082610cbf565b600181019050610cd8565b5050565b601f821115610d3b57610d0c81610bdb565b610d1584610bf0565b81016020851015610d24578190505b610d38610d3085610bf0565b830182610cd7565b50505b505050565b600082821c905092915050565b6000610d5e60001984600802610d40565b1980831691505092915050565b6000610d778383610d4d565b9150826002028217905092915050565b610d9082610941565b67ffffffffffffffff811115610da957610da861076d565b5b610db38254610baa565b610dbe828285610cfa565b600060209050601f831160018114610df15760008415610ddf578287015190505b610de98582610d6b565b865550610e51565b601f198416610dff86610bdb565b60005b82811015610e2757848901518255600182019150602085019450602081019050610e02565b86831015610e445784890151610e40601f891682610d4d565b8355505b6001600288020188555050505b505050505050565b610e62816109e0565b82525050565b600082825260208201905092915050565b6000610e8482610941565b610e8e8185610e68565b9350610e9e81856020860161095d565b610ea78161075c565b840191505092915050565b6000606082019050610ec76000830186610e59565b8181036020830152610ed98185610e79565b9050610ee860408301846108eb565b949350505050565b7f4e487b7100000000000000000000000000000000000000000000000000000000600052601260045260246000fd5b6000610f2a826108e1565b9150610f35836108e1565b925082610f4557610f44610ef0565b5b828206905092915050565b7f4e6f2053756666696369656e742046756e647300000000000000000000000000600082015250565b6000610f86601383610e68565b9150610f9182610f50565b602082019050919050565b60006020820190508181036000830152610fb581610f79565b9050919050565b600081905092915050565b50565b6000610fd7600083610fbc565b9150610fe282610fc7565b600082019050919050565b6000610ff882610fca565b9150819050919050565b7f4661696c656420746f2057697468647261772046756e64730000000000000000600082015250565b6000611038601883610e68565b915061104382611002565b602082019050919050565b600060208201905081810360008301526110678161102b565b9050919050565b600060208201905081810360008301526110888184610e79565b905092915050565b600060408201905081810360008301526110aa8185610e79565b90506110b960208301846108eb565b9392505050565b600060408201905081810360008301526110da8185610e79565b90506110e96020830184610e59565b939250505056fea2646970667358221220986f9c2b077bc095cd938f9915711b984fb01c546a0f67bb599dc34798c323dd64736f6c63430008110033",
  "linkReferences": {},
  "deployedLinkReferences": {}
}